{
  "_format": "hh-sol-artifact-1",
  "contractName": "Test",
  "sourceName": "contracts/nft.sol",
  "abi": [
    {
      "inputs": [],
      "stateMutability": "nonpayable",
      "type": "constructor"
    },
    {
      "anonymous": false,
      "inputs": [
        {
          "indexed": true,
          "internalType": "address",
          "name": "owner",
          "type": "address"
        },
        {
          "indexed": true,
          "internalType": "address",
          "name": "approved",
          "type": "address"
        },
        {
          "indexed": true,
          "internalType": "uint256",
          "name": "tokenId",
          "type": "uint256"
        }
      ],
      "name": "Approval",
      "type": "event"
    },
    {
      "anonymous": false,
      "inputs": [
        {
          "indexed": true,
          "internalType": "address",
          "name": "owner",
          "type": "address"
        },
        {
          "indexed": true,
          "internalType": "address",
          "name": "operator",
          "type": "address"
        },
        {
          "indexed": false,
          "internalType": "bool",
          "name": "approved",
          "type": "bool"
        }
      ],
      "name": "ApprovalForAll",
      "type": "event"
    },
    {
      "anonymous": false,
      "inputs": [
        {
          "indexed": true,
          "internalType": "address",
          "name": "previousOwner",
          "type": "address"
        },
        {
          "indexed": true,
          "internalType": "address",
          "name": "newOwner",
          "type": "address"
        }
      ],
      "name": "OwnershipTransferred",
      "type": "event"
    },
    {
      "anonymous": false,
      "inputs": [
        {
          "indexed": true,
          "internalType": "address",
          "name": "from",
          "type": "address"
        },
        {
          "indexed": true,
          "internalType": "address",
          "name": "to",
          "type": "address"
        },
        {
          "indexed": true,
          "internalType": "uint256",
          "name": "tokenId",
          "type": "uint256"
        }
      ],
      "name": "Transfer",
      "type": "event"
    },
    {
      "inputs": [],
      "name": "MAX_NFT_PURCHASE",
      "outputs": [
        {
          "internalType": "uint256",
          "name": "",
          "type": "uint256"
        }
      ],
      "stateMutability": "view",
      "type": "function"
    },
    {
      "inputs": [],
      "name": "MAX_SUPPLY",
      "outputs": [
        {
          "internalType": "uint256",
          "name": "",
          "type": "uint256"
        }
      ],
      "stateMutability": "view",
      "type": "function"
    },
    {
      "inputs": [],
      "name": "NFT_PRICE",
      "outputs": [
        {
          "internalType": "uint256",
          "name": "",
          "type": "uint256"
        }
      ],
      "stateMutability": "view",
      "type": "function"
    },
    {
      "inputs": [
        {
          "internalType": "address",
          "name": "to",
          "type": "address"
        },
        {
          "internalType": "uint256",
          "name": "tokenId",
          "type": "uint256"
        }
      ],
      "name": "approve",
      "outputs": [],
      "stateMutability": "nonpayable",
      "type": "function"
    },
    {
      "inputs": [
        {
          "internalType": "address",
          "name": "owner",
          "type": "address"
        }
      ],
      "name": "balanceOf",
      "outputs": [
        {
          "internalType": "uint256",
          "name": "",
          "type": "uint256"
        }
      ],
      "stateMutability": "view",
      "type": "function"
    },
    {
      "inputs": [
        {
          "internalType": "uint256",
          "name": "useTokenId1",
          "type": "uint256"
        }
      ],
      "name": "bet",
      "outputs": [],
      "stateMutability": "nonpayable",
      "type": "function"
    },
    {
      "inputs": [],
      "name": "calcStartingIndex",
      "outputs": [],
      "stateMutability": "nonpayable",
      "type": "function"
    },
    {
      "inputs": [
        {
          "internalType": "uint256",
          "name": "useTokenId1",
          "type": "uint256"
        },
        {
          "internalType": "uint256",
          "name": "useTokenId2",
          "type": "uint256"
        },
        {
          "internalType": "uint256",
          "name": "useTokenId3",
          "type": "uint256"
        }
      ],
      "name": "compose",
      "outputs": [],
      "stateMutability": "nonpayable",
      "type": "function"
    },
    {
      "inputs": [],
      "name": "dragonContract",
      "outputs": [
        {
          "internalType": "address",
          "name": "",
          "type": "address"
        }
      ],
      "stateMutability": "view",
      "type": "function"
    },
    {
      "inputs": [],
      "name": "emergencySetStartingIndexBlock",
      "outputs": [],
      "stateMutability": "nonpayable",
      "type": "function"
    },
    {
      "inputs": [],
      "name": "flipSaleState",
      "outputs": [],
      "stateMutability": "nonpayable",
      "type": "function"
    },
    {
      "inputs": [
        {
          "internalType": "uint256",
          "name": "tokenId",
          "type": "uint256"
        }
      ],
      "name": "getApproved",
      "outputs": [
        {
          "internalType": "address",
          "name": "",
          "type": "address"
        }
      ],
      "stateMutability": "view",
      "type": "function"
    },
    {
      "inputs": [
        {
          "internalType": "address",
          "name": "owner",
          "type": "address"
        },
        {
          "internalType": "address",
          "name": "operator",
          "type": "address"
        }
      ],
      "name": "isApprovedForAll",
      "outputs": [
        {
          "internalType": "bool",
          "name": "",
          "type": "bool"
        }
      ],
      "stateMutability": "view",
      "type": "function"
    },
    {
      "inputs": [
        {
          "internalType": "uint256",
          "name": "numberOfTokens",
          "type": "uint256"
        }
      ],
      "name": "mint",
      "outputs": [],
      "stateMutability": "payable",
      "type": "function"
    },
    {
      "inputs": [],
      "name": "name",
      "outputs": [
        {
          "internalType": "string",
          "name": "",
          "type": "string"
        }
      ],
      "stateMutability": "view",
      "type": "function"
    },
    {
      "inputs": [],
      "name": "owner",
      "outputs": [
        {
          "internalType": "address",
          "name": "",
          "type": "address"
        }
      ],
      "stateMutability": "view",
      "type": "function"
    },
    {
      "inputs": [
        {
          "internalType": "uint256",
          "name": "tokenId",
          "type": "uint256"
        }
      ],
      "name": "ownerOf",
      "outputs": [
        {
          "internalType": "address",
          "name": "",
          "type": "address"
        }
      ],
      "stateMutability": "view",
      "type": "function"
    },
    {
      "inputs": [],
      "name": "renounceOwnership",
      "outputs": [],
      "stateMutability": "nonpayable",
      "type": "function"
    },
    {
      "inputs": [
        {
          "internalType": "uint256",
          "name": "num",
          "type": "uint256"
        }
      ],
      "name": "reserveTokens",
      "outputs": [],
      "stateMutability": "nonpayable",
      "type": "function"
    },
    {
      "inputs": [
        {
          "internalType": "address",
          "name": "from",
          "type": "address"
        },
        {
          "internalType": "address",
          "name": "to",
          "type": "address"
        },
        {
          "internalType": "uint256",
          "name": "tokenId",
          "type": "uint256"
        }
      ],
      "name": "safeTransferFrom",
      "outputs": [],
      "stateMutability": "nonpayable",
      "type": "function"
    },
    {
      "inputs": [
        {
          "internalType": "address",
          "name": "from",
          "type": "address"
        },
        {
          "internalType": "address",
          "name": "to",
          "type": "address"
        },
        {
          "internalType": "uint256",
          "name": "tokenId",
          "type": "uint256"
        },
        {
          "internalType": "bytes",
          "name": "_data",
          "type": "bytes"
        }
      ],
      "name": "safeTransferFrom",
      "outputs": [],
      "stateMutability": "nonpayable",
      "type": "function"
    },
    {
      "inputs": [],
      "name": "saleIsActive",
      "outputs": [
        {
          "internalType": "bool",
          "name": "",
          "type": "bool"
        }
      ],
      "stateMutability": "view",
      "type": "function"
    },
    {
      "inputs": [
        {
          "internalType": "address",
          "name": "operator",
          "type": "address"
        },
        {
          "internalType": "bool",
          "name": "approved",
          "type": "bool"
        }
      ],
      "name": "setApprovalForAll",
      "outputs": [],
      "stateMutability": "nonpayable",
      "type": "function"
    },
    {
      "inputs": [
        {
          "internalType": "string",
          "name": "baseURI_",
          "type": "string"
        }
      ],
      "name": "setBaseURI",
      "outputs": [],
      "stateMutability": "nonpayable",
      "type": "function"
    },
    {
      "inputs": [
        {
          "internalType": "address",
          "name": "contractAddress",
          "type": "address"
        }
      ],
      "name": "setDragonContractAddress",
      "outputs": [],
      "stateMutability": "nonpayable",
      "type": "function"
    },
    {
      "inputs": [],
      "name": "startingIndex",
      "outputs": [
        {
          "internalType": "uint256",
          "name": "",
          "type": "uint256"
        }
      ],
      "stateMutability": "view",
      "type": "function"
    },
    {
      "inputs": [],
      "name": "startingIndexBlock",
      "outputs": [
        {
          "internalType": "uint256",
          "name": "",
          "type": "uint256"
        }
      ],
      "stateMutability": "view",
      "type": "function"
    },
    {
      "inputs": [
        {
          "internalType": "bytes4",
          "name": "interfaceId",
          "type": "bytes4"
        }
      ],
      "name": "supportsInterface",
      "outputs": [
        {
          "internalType": "bool",
          "name": "",
          "type": "bool"
        }
      ],
      "stateMutability": "view",
      "type": "function"
    },
    {
      "inputs": [],
      "name": "symbol",
      "outputs": [
        {
          "internalType": "string",
          "name": "",
          "type": "string"
        }
      ],
      "stateMutability": "view",
      "type": "function"
    },
    {
      "inputs": [
        {
          "internalType": "uint256",
          "name": "index",
          "type": "uint256"
        }
      ],
      "name": "tokenByIndex",
      "outputs": [
        {
          "internalType": "uint256",
          "name": "",
          "type": "uint256"
        }
      ],
      "stateMutability": "view",
      "type": "function"
    },
    {
      "inputs": [
        {
          "internalType": "address",
          "name": "owner",
          "type": "address"
        },
        {
          "internalType": "uint256",
          "name": "index",
          "type": "uint256"
        }
      ],
      "name": "tokenOfOwnerByIndex",
      "outputs": [
        {
          "internalType": "uint256",
          "name": "",
          "type": "uint256"
        }
      ],
      "stateMutability": "view",
      "type": "function"
    },
    {
      "inputs": [
        {
          "internalType": "uint256",
          "name": "tokenId",
          "type": "uint256"
        }
      ],
      "name": "tokenURI",
      "outputs": [
        {
          "internalType": "string",
          "name": "",
          "type": "string"
        }
      ],
      "stateMutability": "view",
      "type": "function"
    },
    {
      "inputs": [],
      "name": "totalSupply",
      "outputs": [
        {
          "internalType": "uint256",
          "name": "",
          "type": "uint256"
        }
      ],
      "stateMutability": "view",
      "type": "function"
    },
    {
      "inputs": [
        {
          "internalType": "address",
          "name": "from",
          "type": "address"
        },
        {
          "internalType": "address",
          "name": "to",
          "type": "address"
        },
        {
          "internalType": "uint256",
          "name": "tokenId",
          "type": "uint256"
        }
      ],
      "name": "transferFrom",
      "outputs": [],
      "stateMutability": "nonpayable",
      "type": "function"
    },
    {
      "inputs": [
        {
          "internalType": "address",
          "name": "newOwner",
          "type": "address"
        }
      ],
      "name": "transferOwnership",
      "outputs": [],
      "stateMutability": "nonpayable",
      "type": "function"
    },
    {
      "inputs": [],
      "name": "withdraw",
      "outputs": [],
      "stateMutability": "nonpayable",
      "type": "function"
    }
  ],
  "bytecode": "0x6080604052612710600c55600d805460ff191690553480156200002157600080fd5b50604080518082018252600781526654657374696e6760c81b602080830191825283518085019094526004845263151154d560e21b9084015281519192916200006d91600091620000f0565b50805162000083906001906020840190620000f0565b505050600062000098620000ec60201b60201c565b600a80546001600160a01b0319166001600160a01b038316908117909155604051919250906000907f8be0079c531659141344cd1fd0a4f28419497f9722a3daafe3b4186f6b6457e0908290a350620001d3565b3390565b828054620000fe9062000196565b90600052602060002090601f0160209004810192826200012257600085556200016d565b82601f106200013d57805160ff19168380011785556200016d565b828001600101855582156200016d579182015b828111156200016d57825182559160200191906001019062000150565b506200017b9291506200017f565b5090565b5b808211156200017b576000815560010162000180565b600281046001821680620001ab57607f821691505b60208210811415620001cd57634e487b7160e01b600052602260045260246000fd5b50919050565b612bd480620001e36000396000f3fe60806040526004361061020f5760003560e01c8063715018a611610118578063b88d4fde116100a0578063e13f351a1161006f578063e13f351a14610597578063e36d6498146105ac578063e985e9c5146105c1578063eb8d2444146105e1578063f2fde38b146105f65761020f565b8063b88d4fde14610522578063c87b56dd14610542578063cb774d4714610562578063d031370b146105775761020f565b80638da5cb5b116100e75780638da5cb5b146104b057806395d89b41146104c55780639711dc38146104da578063a0712d68146104ef578063a22cb465146105025761020f565b8063715018a6146104465780637365870b1461045b5780637d17fcbe1461047b578063888a14ec146104905761020f565b806334918dfd1161019b57806355f804b31161016a57806355f804b3146103b15780636352211e146103d1578063658a3b3c146103f1578063676dd5631461041157806370a08231146104265761020f565b806334918dfd146103475780633ccfd60b1461035c57806342842e0e146103715780634f6ccce7146103915761020f565b8063095ea7b3116101e2578063095ea7b3146102bb57806318160ddd146102dd57806323b872dd146102f25780632f745c591461031257806332cb6b0c146103325761020f565b806301ffc9a714610214578063020b39cc1461024a57806306fdde031461026c578063081812fc1461028e575b600080fd5b34801561022057600080fd5b5061023461022f366004612077565b610616565b60405161024191906121e4565b60405180910390f35b34801561025657600080fd5b5061025f610643565b6040516102419190612a34565b34801561027857600080fd5b50610281610648565b60405161024191906121ef565b34801561029a57600080fd5b506102ae6102a93660046120f5565b6106da565b6040516102419190612193565b3480156102c757600080fd5b506102db6102d6366004612032565b610726565b005b3480156102e957600080fd5b5061025f6107be565b3480156102fe57600080fd5b506102db61030d366004611f48565b6107c4565b34801561031e57600080fd5b5061025f61032d366004612032565b6107fc565b34801561033e57600080fd5b5061025f61084e565b34801561035357600080fd5b506102db610854565b34801561036857600080fd5b506102db6108a7565b34801561037d57600080fd5b506102db61038c366004611f48565b610919565b34801561039d57600080fd5b5061025f6103ac3660046120f5565b610934565b3480156103bd57600080fd5b506102db6103cc3660046120af565b61098f565b3480156103dd57600080fd5b506102ae6103ec3660046120f5565b6109e1565b3480156103fd57600080fd5b506102db61040c366004611efc565b610a16565b34801561041d57600080fd5b5061025f610a77565b34801561043257600080fd5b5061025f610441366004611efc565b610a82565b34801561045257600080fd5b506102db610ac6565b34801561046757600080fd5b506102db6104763660046120f5565b610b4f565b34801561048757600080fd5b506102db610c5e565b34801561049c57600080fd5b506102db6104ab36600461210d565b610cc3565b3480156104bc57600080fd5b506102ae610e5a565b3480156104d157600080fd5b50610281610e69565b3480156104e657600080fd5b506102ae610e78565b6102db6104fd3660046120f5565b610e87565b34801561050e57600080fd5b506102db61051d366004611ffc565b610f7a565b34801561052e57600080fd5b506102db61053d366004611f83565b611048565b34801561054e57600080fd5b5061028161055d3660046120f5565b611081565b34801561056e57600080fd5b5061025f6111c4565b34801561058357600080fd5b506102db6105923660046120f5565b6111ca565b3480156105a357600080fd5b506102db611250565b3480156105b857600080fd5b5061025f611331565b3480156105cd57600080fd5b506102346105dc366004611f16565b611337565b3480156105ed57600080fd5b50610234611365565b34801561060257600080fd5b506102db610611366004611efc565b61136e565b60006001600160e01b0319821663780e9d6360e01b148061063b575061063b8261142f565b90505b919050565b601481565b60606000805461065790612acb565b80601f016020809104026020016040519081016040528092919081815260200182805461068390612acb565b80156106d05780601f106106a5576101008083540402835291602001916106d0565b820191906000526020600020905b8154815290600101906020018083116106b357829003601f168201915b5050505050905090565b60006106e58261146f565b61070a5760405162461bcd60e51b81526004016107019061273b565b60405180910390fd5b506000908152600460205260409020546001600160a01b031690565b6000610731826109e1565b9050806001600160a01b0316836001600160a01b031614156107655760405162461bcd60e51b815260040161070190612854565b806001600160a01b031661077761148c565b6001600160a01b031614806107935750610793816105dc61148c565b6107af5760405162461bcd60e51b815260040161070190612567565b6107b98383611490565b505050565b60085490565b6107d56107cf61148c565b826114fe565b6107f15760405162461bcd60e51b815260040161070190612895565b6107b9838383611583565b600061080783610a82565b82106108255760405162461bcd60e51b81526004016107019061230c565b506001600160a01b03919091166000908152600660209081526040808320938352929052205490565b600c5481565b61085c61148c565b6001600160a01b031661086d610e5a565b6001600160a01b0316146108935760405162461bcd60e51b815260040161070190612787565b600d805460ff19811660ff90911615179055565b6108af61148c565b6001600160a01b03166108c0610e5a565b6001600160a01b0316146108e65760405162461bcd60e51b815260040161070190612787565b6040514790339082156108fc029083906000818181858888f19350505050158015610915573d6000803e3d6000fd5b5050565b6107b983838360405180602001604052806000815250611048565b600061093e6107be565b821061095c5760405162461bcd60e51b8152600401610701906128e6565b6008828154811061097d57634e487b7160e01b600052603260045260246000fd5b90600052602060002001549050919050565b61099761148c565b6001600160a01b03166109a8610e5a565b6001600160a01b0316146109ce5760405162461bcd60e51b815260040161070190612787565b8051610915906010906020840190611ddc565b6000818152600260205260408120546001600160a01b03168061063b5760405162461bcd60e51b81526004016107019061260e565b610a1e61148c565b6001600160a01b0316610a2f610e5a565b6001600160a01b031614610a555760405162461bcd60e51b815260040161070190612787565b600b80546001600160a01b0319166001600160a01b0392909216919091179055565b66470de4df82000081565b60006001600160a01b038216610aaa5760405162461bcd60e51b8152600401610701906125c4565b506001600160a01b031660009081526003602052604090205490565b610ace61148c565b6001600160a01b0316610adf610e5a565b6001600160a01b031614610b055760405162461bcd60e51b815260040161070190612787565b600a546040516000916001600160a01b0316907f8be0079c531659141344cd1fd0a4f28419497f9722a3daafe3b4186f6b6457e0908390a3600a80546001600160a01b0319169055565b600b546001600160a01b0316610b775760405162461bcd60e51b815260040161070190612657565b3380610b82836109e1565b6001600160a01b031614610ba85760405162461bcd60e51b815260040161070190612975565b610bb281836116b2565b600b54604051630392b12d60e51b81526001600160a01b0390911690600090829063725625a090610be7908690600401612193565b602060405180830381600087803b158015610c0157600080fd5b505af1158015610c15573d6000803e3d6000fd5b505050506040513d601f19601f82011682018060405250810190610c39919061205b565b905080610c585760405162461bcd60e51b815260040161070190612298565b50505050565b610c6661148c565b6001600160a01b0316610c77610e5a565b6001600160a01b031614610c9d5760405162461bcd60e51b815260040161070190612787565b600e5415610cbd5760405162461bcd60e51b815260040161070190612530565b43600f55565b600b546001600160a01b0316610ceb5760405162461bcd60e51b815260040161070190612657565b3380610cf6856109e1565b6001600160a01b031614610d1c5760405162461bcd60e51b815260040161070190612975565b806001600160a01b0316610d2f846109e1565b6001600160a01b031614610d555760405162461bcd60e51b8152600401610701906129ba565b806001600160a01b0316610d68836109e1565b6001600160a01b031614610d8e5760405162461bcd60e51b8152600401610701906122c7565b610d9881856116b2565b610da281846116b2565b610dac81836116b2565b600b5460405163a96f7ef160e01b81526001600160a01b0390911690600090829063a96f7ef190610de1908690600401612193565b602060405180830381600087803b158015610dfb57600080fd5b505af1158015610e0f573d6000803e3d6000fd5b505050506040513d601f19601f82011682018060405250810190610e33919061205b565b905080610e525760405162461bcd60e51b815260040161070190612298565b505050505050565b600a546001600160a01b031690565b60606001805461065790612acb565b600b546001600160a01b031681565b600d5460ff16610ea95760405162461bcd60e51b8152600401610701906129ff565b60008111610ec95760405162461bcd60e51b815260040161070190612245565b600c54610ede82610ed86107be565b9061174e565b1115610efc5760405162461bcd60e51b8152600401610701906126d1565b6014811115610f1d5760405162461bcd60e51b815260040161070190612426565b34610f2f66470de4df82000083611761565b14610f4c5760405162461bcd60e51b81526004016107019061269a565b60005b8181101561091557610f6833610f636107be565b61176d565b80610f7281612b06565b915050610f4f565b610f8261148c565b6001600160a01b0316826001600160a01b03161415610fb35760405162461bcd60e51b8152600401610701906124ad565b8060056000610fc061148c565b6001600160a01b03908116825260208083019390935260409182016000908120918716808252919093529120805460ff19169215159290921790915561100461148c565b6001600160a01b03167f17307eab39ab6107e8899845ad3d59bd9653f200f220920489ca2b5937696c318360405161103c91906121e4565b60405180910390a35050565b61105961105361148c565b836114fe565b6110755760405162461bcd60e51b815260040161070190612895565b610c5884848484611787565b606061108c8261146f565b6110a85760405162461bcd60e51b815260040161070190612805565b600082815260116020526040812080546110c190612acb565b80601f01602080910402602001604051908101604052809291908181526020018280546110ed90612acb565b801561113a5780601f1061110f5761010080835404028352916020019161113a565b820191906000526020600020905b81548152906001019060200180831161111d57829003601f168201915b50505050509050600061114b6117ba565b905080516000141561115f5750905061063e565b815115611191578082604051602001611179929190612164565b6040516020818303038152906040529250505061063e565b8061119b856117c9565b6040516020016111ac929190612164565b60405160208183030381529060405292505050919050565b600e5481565b6111d261148c565b6001600160a01b03166111e3610e5a565b6001600160a01b0316146112095760405162461bcd60e51b815260040161070190612787565b60006112136107be565b905060005b828110156112405761122e33610f638385612a3d565b8061123881612b06565b915050611218565b600f546107b95743600f55505050565b61125861148c565b6001600160a01b0316611269610e5a565b6001600160a01b03161461128f5760405162461bcd60e51b815260040161070190612787565b600e54156112af5760405162461bcd60e51b815260040161070190612932565b600f546112ce5760405162461bcd60e51b815260040161070190612202565b600c54600f546112df919040612b21565b600e55600f5460ff906112f39043906118e4565b111561131657600c54611307600143612a88565b611312919040612b21565b600e555b600e5461132f57600e5461132b90600161174e565b600e555b565b600f5481565b6001600160a01b03918216600090815260056020908152604080832093909416825291909152205460ff1690565b600d5460ff1681565b61137661148c565b6001600160a01b0316611387610e5a565b6001600160a01b0316146113ad5760405162461bcd60e51b815260040161070190612787565b6001600160a01b0381166113d35760405162461bcd60e51b8152600401610701906123a9565b600a546040516001600160a01b038084169216907f8be0079c531659141344cd1fd0a4f28419497f9722a3daafe3b4186f6b6457e090600090a3600a80546001600160a01b0319166001600160a01b0392909216919091179055565b60006001600160e01b031982166380ac58cd60e01b148061146057506001600160e01b03198216635b5e139f60e01b145b8061063b575061063b826118f0565b6000908152600260205260409020546001600160a01b0316151590565b3390565b600081815260046020526040902080546001600160a01b0319166001600160a01b03841690811790915581906114c5826109e1565b6001600160a01b03167f8c5be1e5ebec7d5bd14f71427d1e84f3dd0314c0f7b2291e5b200ac8c7c3b92560405160405180910390a45050565b60006115098261146f565b6115255760405162461bcd60e51b8152600401610701906124e4565b6000611530836109e1565b9050806001600160a01b0316846001600160a01b0316148061156b5750836001600160a01b0316611560846106da565b6001600160a01b0316145b8061157b575061157b8185611337565b949350505050565b826001600160a01b0316611596826109e1565b6001600160a01b0316146115bc5760405162461bcd60e51b8152600401610701906127bc565b6001600160a01b0382166115e25760405162461bcd60e51b815260040161070190612469565b6115ef8383836001611909565b6115fa600082611490565b6001600160a01b0383166000908152600360205260408120805460019290611623908490612a88565b90915550506001600160a01b0382166000908152600360205260408120805460019290611651908490612a3d565b909155505060008181526002602052604080822080546001600160a01b0319166001600160a01b0386811691821790925591518493918716917fddf252ad1be2c89b69c2b068fc378daa952ba7f163c4a11628f55a4df523b3ef91a4505050565b6116c0826000836000611909565b6116cb600082611490565b6001600160a01b03821660009081526003602052604081208054600192906116f4908490612a88565b909155505060008181526002602052604080822080546001600160a01b0319169055518291906001600160a01b038516907fddf252ad1be2c89b69c2b068fc378daa952ba7f163c4a11628f55a4df523b3ef908390a45050565b600061175a8284612a3d565b9392505050565b600061175a8284612a69565b6109158282604051806020016040528060008152506119a9565b611792848484611583565b61179e848484846119dc565b610c585760405162461bcd60e51b815260040161070190612357565b60606010805461065790612acb565b6060816117ee57506040805180820190915260018152600360fc1b602082015261063e565b8160005b8115611818578061180281612b06565b91506118119050600a83612a55565b91506117f2565b60008167ffffffffffffffff81111561184157634e487b7160e01b600052604160045260246000fd5b6040519080825280601f01601f19166020018201604052801561186b576020820181803683370190505b5090505b841561157b57611880600183612a88565b915061188d600a86612b21565b611898906030612a3d565b60f81b8183815181106118bb57634e487b7160e01b600052603260045260246000fd5b60200101906001600160f81b031916908160001a9053506118dd600a86612a55565b945061186f565b600061175a8284612a88565b6001600160e01b031981166301ffc9a760e01b14919050565b61191584848484610c58565b6001600160a01b0384166119315761192c82611af7565b611954565b826001600160a01b0316846001600160a01b031614611954576119548483611b3b565b6001600160a01b0383161580156119685750805b1561197b5761197682611bd8565b610c58565b836001600160a01b0316836001600160a01b03161415801561199a5750805b15610c5857610c588383611cb1565b6119b38383611cf5565b6119c060008484846119dc565b6107b95760405162461bcd60e51b815260040161070190612357565b60006119f0846001600160a01b0316611dd6565b15611aec57836001600160a01b031663150b7a02611a0c61148c565b8786866040518563ffffffff1660e01b8152600401611a2e94939291906121a7565b602060405180830381600087803b158015611a4857600080fd5b505af1925050508015611a78575060408051601f3d908101601f19168201909252611a7591810190612093565b60015b611ad2573d808015611aa6576040519150601f19603f3d011682016040523d82523d6000602084013e611aab565b606091505b508051611aca5760405162461bcd60e51b815260040161070190612357565b805181602001fd5b6001600160e01b031916630a85bd0160e11b14905061157b565b506001949350505050565b600880546000838152600960205260408120829055600182018355919091527ff3f7a9fe364faab93b216da50a3214154f22a0a2b415b23a84c8169e8b636ee30155565b60006001611b4884610a82565b611b529190612a88565b600083815260076020526040902054909150808214611ba5576001600160a01b03841660009081526006602090815260408083208584528252808320548484528184208190558352600790915290208190555b5060009182526007602090815260408084208490556001600160a01b039094168352600681528383209183525290812055565b600854600090611bea90600190612a88565b60008381526009602052604081205460088054939450909284908110611c2057634e487b7160e01b600052603260045260246000fd5b906000526020600020015490508060088381548110611c4f57634e487b7160e01b600052603260045260246000fd5b6000918252602080832090910192909255828152600990915260408082208490558582528120556008805480611c9557634e487b7160e01b600052603160045260246000fd5b6001900381819060005260206000200160009055905550505050565b6000611cbc83610a82565b6001600160a01b039093166000908152600660209081526040808320868452825280832085905593825260079052919091209190915550565b6001600160a01b038216611d1b5760405162461bcd60e51b815260040161070190612706565b611d248161146f565b15611d415760405162461bcd60e51b8152600401610701906123ef565b611d4f600083836001611909565b6001600160a01b0382166000908152600360205260408120805460019290611d78908490612a3d565b909155505060008181526002602052604080822080546001600160a01b0319166001600160a01b03861690811790915590518392907fddf252ad1be2c89b69c2b068fc378daa952ba7f163c4a11628f55a4df523b3ef908290a45050565b3b151590565b828054611de890612acb565b90600052602060002090601f016020900481019282611e0a5760008555611e50565b82601f10611e2357805160ff1916838001178555611e50565b82800160010185558215611e50579182015b82811115611e50578251825591602001919060010190611e35565b50611e5c929150611e60565b5090565b5b80821115611e5c5760008155600101611e61565b600067ffffffffffffffff80841115611e9057611e90612b61565b604051601f8501601f191681016020018281118282101715611eb457611eb4612b61565b604052848152915081838501861015611ecc57600080fd5b8484602083013760006020868301015250509392505050565b80356001600160a01b038116811461063e57600080fd5b600060208284031215611f0d578081fd5b61175a82611ee5565b60008060408385031215611f28578081fd5b611f3183611ee5565b9150611f3f60208401611ee5565b90509250929050565b600080600060608486031215611f5c578081fd5b611f6584611ee5565b9250611f7360208501611ee5565b9150604084013590509250925092565b60008060008060808587031215611f98578081fd5b611fa185611ee5565b9350611faf60208601611ee5565b925060408501359150606085013567ffffffffffffffff811115611fd1578182fd5b8501601f81018713611fe1578182fd5b611ff087823560208401611e75565b91505092959194509250565b6000806040838503121561200e578182fd5b61201783611ee5565b9150602083013561202781612b77565b809150509250929050565b60008060408385031215612044578182fd5b61204d83611ee5565b946020939093013593505050565b60006020828403121561206c578081fd5b815161175a81612b77565b600060208284031215612088578081fd5b813561175a81612b88565b6000602082840312156120a4578081fd5b815161175a81612b88565b6000602082840312156120c0578081fd5b813567ffffffffffffffff8111156120d6578182fd5b8201601f810184136120e6578182fd5b61157b84823560208401611e75565b600060208284031215612106578081fd5b5035919050565b600080600060608486031215612121578283fd5b505081359360208301359350604090920135919050565b60008151808452612150816020860160208601612a9f565b601f01601f19169290920160200192915050565b60008351612176818460208801612a9f565b83519083019061218a818360208801612a9f565b01949350505050565b6001600160a01b0391909116815260200190565b6001600160a01b03858116825284166020820152604081018390526080606082018190526000906121da90830184612138565b9695505050505050565b901515815260200190565b60006020825261175a6020830184612138565b60208082526023908201527f5374617274696e6720696e64657820686173206e6f74206265656e20736574206040820152621e595d60ea1b606082015260800190565b60208082526033908201527f4e756d626572206f6620746f6b656e732063616e206e6f74206265206c6573736040820152720207468616e206f7220657175616c20746f203606c1b606082015260800190565b602080825260159082015274111c9859dbdb8818dbdb5c1bdcd94819985a5b1959605a1b604082015260600190565b60208082526025908201527f4552433732313a20757365206f6620746f6b656e332074686174206973206e6f6040820152643a1037bbb760d91b606082015260800190565b6020808252602b908201527f455243373231456e756d657261626c653a206f776e657220696e646578206f7560408201526a74206f6620626f756e647360a81b606082015260800190565b60208082526032908201527f4552433732313a207472616e7366657220746f206e6f6e20455243373231526560408201527131b2b4bb32b91034b6b83632b6b2b73a32b960711b606082015260800190565b60208082526026908201527f4f776e61626c653a206e6577206f776e657220697320746865207a65726f206160408201526564647265737360d01b606082015260800190565b6020808252601c908201527f4552433732313a20746f6b656e20616c7265616479206d696e74656400000000604082015260600190565b60208082526023908201527f43616e206f6e6c79206d696e7420757020746f2031302070657220707572636860408201526261736560e81b606082015260800190565b60208082526024908201527f4552433732313a207472616e7366657220746f20746865207a65726f206164646040820152637265737360e01b606082015260800190565b60208082526019908201527f4552433732313a20617070726f766520746f2063616c6c657200000000000000604082015260600190565b6020808252602c908201527f4552433732313a206f70657261746f7220717565727920666f72206e6f6e657860408201526b34b9ba32b73a103a37b5b2b760a11b606082015260800190565b6020808252601d908201527f5374617274696e6720696e64657820697320616c726561647920736574000000604082015260600190565b60208082526038908201527f4552433732313a20617070726f76652063616c6c6572206973206e6f74206f7760408201527f6e6572206e6f7220617070726f76656420666f7220616c6c0000000000000000606082015260800190565b6020808252602a908201527f4552433732313a2062616c616e636520717565727920666f7220746865207a65604082015269726f206164647265737360b01b606082015260800190565b60208082526029908201527f4552433732313a206f776e657220717565727920666f72206e6f6e657869737460408201526832b73a103a37b5b2b760b91b606082015260800190565b60208082526023908201527f447261676f6e20636f6e74726163742061646472657373206e656564206265206040820152621cd95d60ea1b606082015260800190565b6020808252601d908201527f53656e742065746865722076616c756520697320696e636f7272656374000000604082015260600190565b6020808252818101527f507572636861736520776f756c6420657863656564206d617820737570706c79604082015260600190565b6020808252818101527f4552433732313a206d696e7420746f20746865207a65726f2061646472657373604082015260600190565b6020808252602c908201527f4552433732313a20617070726f76656420717565727920666f72206e6f6e657860408201526b34b9ba32b73a103a37b5b2b760a11b606082015260800190565b6020808252818101527f4f776e61626c653a2063616c6c6572206973206e6f7420746865206f776e6572604082015260600190565b60208082526029908201527f4552433732313a207472616e73666572206f6620746f6b656e2074686174206960408201526839903737ba1037bbb760b91b606082015260800190565b6020808252602f908201527f4552433732314d657461646174613a2055524920717565727920666f72206e6f60408201526e3732bc34b9ba32b73a103a37b5b2b760891b606082015260800190565b60208082526021908201527f4552433732313a20617070726f76616c20746f2063757272656e74206f776e656040820152603960f91b606082015260800190565b60208082526031908201527f4552433732313a207472616e736665722063616c6c6572206973206e6f74206f6040820152701ddb995c881b9bdc88185c1c1c9bdd9959607a1b606082015260800190565b6020808252602c908201527f455243373231456e756d657261626c653a20676c6f62616c20696e646578206f60408201526b7574206f6620626f756e647360a01b606082015260800190565b60208082526023908201527f5374617274696e6720696e6465782068617320616c7265616479206265656e206040820152621cd95d60ea1b606082015260800190565b60208082526025908201527f4552433732313a20757365206f6620746f6b656e312074686174206973206e6f6040820152643a1037bbb760d91b606082015260800190565b60208082526025908201527f4552433732313a20757365206f6620746f6b656e322074686174206973206e6f6040820152643a1037bbb760d91b606082015260800190565b6020808252818101527f53616c65206973206e6f742061637469766520617420746865206d6f6d656e74604082015260600190565b90815260200190565b60008219821115612a5057612a50612b35565b500190565b600082612a6457612a64612b4b565b500490565b6000816000190483118215151615612a8357612a83612b35565b500290565b600082821015612a9a57612a9a612b35565b500390565b60005b83811015612aba578181015183820152602001612aa2565b83811115610c585750506000910152565b600281046001821680612adf57607f821691505b60208210811415612b0057634e487b7160e01b600052602260045260246000fd5b50919050565b6000600019821415612b1a57612b1a612b35565b5060010190565b600082612b3057612b30612b4b565b500690565b634e487b7160e01b600052601160045260246000fd5b634e487b7160e01b600052601260045260246000fd5b634e487b7160e01b600052604160045260246000fd5b8015158114612b8557600080fd5b50565b6001600160e01b031981168114612b8557600080fdfea2646970667358221220abc421cd604c4ff06a5f5d38ce09161aee1a8cc1be6c2baddc9c3c10eaec4dba64736f6c63430008000033",
  "linkReferences": {},
  "deployedLinkReferences": {}
}